:100000000C9462000C948A000C948A000C948A0070
:100010000C948A000C948A000C948A000C948A0038
:100020000C948A000C948A000C948A000C948A0028
:100030000C948A000C948A000C948A000C948A0018
:100040000C9458060C948A000C9426060C94000616
:100050000C948A000C948A000C948A000C948A00F8
:100060000C948A000C948A000000000024002700F1
:100070002A0000000000250028002B0000000000DE
:1000800023002600290004040404040404040202DA
:100090000202020203030303030301020408102007
:1000A0004080010204081020010204081020000012
:1000B0000008000201000003040700000000000027
:1000C0000000A20611241FBECFEFD8E0DEBFCDBFD7
:1000D00011E0A0E0B1E0EAEFFCE102C005900D9272
:1000E000AE35B107D9F722E0AEE5B1E001C01D920F
:1000F000AF38B207E1F710E0C2E6D0E004C02197C4
:10010000FE010E94530EC136D107C9F70E944C0769
:100110000C947B0E0C9400000F931F93CF93DF93EE
:10012000C0915A02EBE5F2E0CD3211F0EAE5F2E0DF
:100130008F0120E030E0A901D801DD918D0180ED33
:100140008D0F8A3090F4AAE0B0E00E94590E2D2F56
:10015000DD0F330B440B550B260F371F481F591F5C
:100160002053310941095109E7CFA4E6B0E00E94CC
:10017000590EAB01BC01DF01819190ED980F9A30CF
:10018000D0F38E3259F511968C91119790ED980F0E
:100190009A3020F5082E000C990BC0972AE0289F72
:1001A0008001299F100D1124012E000C220B330B0E
:1001B000400F511F621F731F12968C9190ED980F84
:1001C0009A3060F4082E000C990BC097092E000C91
:1001D000AA0BBB0B480F591F6A1F7B1FCD3239F486
:1001E00070956095509541955F4F6F4F7F4FCB0154
:1001F000BA01DF91CF911F910F9108954F925F92B5
:100200006F927F928F929F92AF92BF92CF92DF9226
:10021000EF92FF921F93CF93DF93CAE5D2E0FE01E6
:10022000C12CD12C7601119180ED810F8A30A8F478
:10023000AAE0B0E0A70196010E94590EC12E110F4D
:10024000DD08EE08FF08C60ED71EE81EF91E80E383
:10025000C81AD108E108F108E6CFC701B60124E6C3
:1002600030E040E050E00E94310E9B01AC0160EABA
:1002700076E881E090E00E94210E4B015C019E0136
:10028000899190ED980F9A30D0F38E3221F5E901E3
:10029000219680E1482E87E2582E612C712CA9917D
:1002A00080ED8A0F8A30B8F40A2E000CBB0BD09771
:1002B000A30192010E94640E860E971EA81EB91E0D
:1002C000C301B2012AE030E040E050E00E94310E6C
:1002D00029013A01E4CFC701B60124E630E040E04D
:1002E00050E00E94310E60E472E48FE090E00E94E2
:1002F000210E6B017C01C501B4016D5F7F4F8F4FF3
:100300009F4F26E030E040E050E00E94310EC701F0
:10031000B601620F731F841F951FDF91CF911F914C
:10032000FF90EF90DF90CF90BF90AF909F908F9015
:100330007F906F905F904F900895AF92BF92CF9251
:10034000DF92EF92FF920F931F93CF93DF936C0195
:100350007B018B01040F151FEB015E01AE18BF0876
:10036000C017D10759F06991D601ED91FC91019028
:10037000F081E02DC6010995892B79F7C501DF9140
:10038000CF911F910F91FF90EF90DF90CF90BF9092
:10039000AF900895FC01538D448D252F30E0842FBC
:1003A00090E0821B930B541710F0CF96089501979D
:1003B0000895FC01918D828D981761F0A28DAE0F8A
:1003C000BF2FB11D5D968C91928D9F5F9F73928F11
:1003D00090E008958FEF9FEF0895FC01918D828D3D
:1003E000981731F0828DE80FF11D858D90E008950A
:1003F0008FEF9FEF0895FC01918D228D892F90E062
:10040000805C9F4F821B91098F739927089587E61F
:1004100091E00E94FB0121E0892B09F420E0822F6A
:10042000089580E090E0892B29F00E940702811155
:100430000C9400000895FC01A48DA80FB92FB11DE4
:10044000A35ABF4F2C91848D90E001968F7399270A
:10045000848FA689B7892C93A089B1898C918370E8
:1004600080648C93938D848D981306C00288F389E1
:10047000E02D80818F7D80830895EF92FF920F930E
:100480001F93CF93DF93EC0181E0888F9B8D8C8D40
:1004900098131AC0E889F989808185FF15C09FB734
:1004A000F894EE89FF896083E889F98980818370F7
:1004B000806480839FBF81E090E0DF91CF911F91A6
:1004C0000F91FF90EF900895F62E0B8D10E00F5FC7
:1004D0001F4F0F731127E02E8C8D8E110CC00FB69D
:1004E00007FCFACFE889F989808185FFF5CFCE0135
:1004F0000E941B02F1CFEB8DEC0FFD2FF11DE35A93
:10050000FF4FF0829FB7F8940B8FEA89FB898081B7
:100510008062CFCFCF93DF93EC01888D8823B9F031
:10052000AA89BB89E889F9898C9185FD03C08081FE
:1005300086FD0DC00FB607FCF7CF8C9185FFF2CF7B
:10054000808185FFEDCFCE010E941B02E9CFDF91B4
:10055000CF910895833081F028F4813099F0823072
:10056000A9F008958730A9F08830C9F08430B1F43B
:10057000809180008F7D03C0809180008F77809371
:100580008000089584B58F7784BD089584B58F7DEC
:10059000FBCF8091B0008F778093B0000895809159
:1005A000B0008F7DF9CF1F93CF93DF93282F30E0DA
:1005B000F901E255FF4F8491F901E656FF4FD491BE
:1005C000F901EA57FF4FC491CC23A9F0162F8111EE
:1005D0000E94AA02EC2FF0E0EE0FFF1FEE58FF4F33
:1005E000A591B4918FB7F894EC91111108C0D095F2
:1005F000DE23DC938FBFDF91CF911F910895DE2B17
:10060000F8CFCF93DF9390E0FC01E656FF4F2491A3
:100610008A579F4FFC0184918823D1F090E0880F86
:10062000991FFC01E859FF4FA591B491FC01EE58C8
:10063000FF4FC591D49161110EC09FB7F8948C9172
:10064000E22FE0958E238C932881E223E8839FBFDD
:10065000DF91CF9108958FB7F894EC91E22BEC9352
:100660008FBFF6CF3FB7F8948091630190916401FA
:10067000A0916501B091660126B5A89B05C02F3FEA
:1006800019F00196A11DB11D3FBFBA2FA92F982FB8
:100690008827BC01CD01620F711D811D911D42E0B3
:1006A000660F771F881F991F4A95D1F708952FB7B6
:1006B000F89460915F017091600180916101909167
:1006C00062012FBF0895089590E080E00895CF93D0
:1006D000DF93EC0160E08E810E94D30261E08E81A5
:1006E0000E94D30260E08E810E94D3028BE891E0E9
:1006F0000197F1F7DF91CF910895CF92DF92EF92BA
:10070000FF920F931F93CF93DF936C017C0187E0DF
:10071000E80EF11CD0E0C0E0062F10E0B8010C2E6E
:1007200002C0759567950A94E2F76170F7018191AF
:100730007F010E94D3022196C430D10579F7C6010A
:10074000DF91CF911F910F91FF90EF90DF90CF90AD
:100750000C946703CF92DF92EF92FF920F931F9357
:10076000CF93DF93EC01F62E642F8C810E94D3028D
:100770008D818F3F19F060E00E94D3020F2D10E0B1
:100780008F8584FF25C06E0187E0C80ED11CF12C37
:10079000E12CB8010E2C02C0759567950A94E2F71A
:1007A0006170F60181916F010E94D302FFEFEF1A91
:1007B000FF0A88E0E816F10461F7CE01DF91CF91DE
:1007C0001F910F91FF90EF90DF90CF900C946703F3
:1007D000B80184E0759567958A95E1F7CE010E948E
:1007E0007D036F2DCE01DF91CF911F910F91FF906F
:1007F000EF90DF90CF900C947D0340E0682F87E767
:1008000092E00C94AA0381E00E94FD038BE39FE138
:100810000197F1F70895CF93DF93823029F49091F7
:10082000860298609093860280938A0210928B02CF
:1008300080E480938C0280E180938D0280E5809338
:100840008E0261E080917B020E94010380917C0214
:100850008F3F19F061E00E94010361E080917D0209
:100860000E940103C7E7D2E09E01275732408091E2
:10087000860284FD0BC084E090E02196281739079A
:1008800044F461E08E810E940103EECF88E090E0A5
:10089000F4CF8BE39DE00197F1F760E080917B025C
:1008A0000E94D30260E080917D020E94D302809179
:1008B0007C028F3F19F060E00E94D3028091860293
:1008C00084FD34C063E087E792E00E947D03CBE4BF
:1008D000D6E4CE010197F1F763E087E792E00E944A
:1008E0007D032197F1F763E087E792E00E947D03A3
:1008F00083E592E00197F1F762E087E792E00E94DA
:100900007D038091860280620E94FD0384E08093D3
:1009100087028CE00E94FD030E94030482E0809322
:10092000880286E0DF91CF910C94FD0380620E94E3
:10093000FD038BE496E40197F1F7809186028062D3
:100940000E94FD0383E592E00197F1F78091860212
:1009500080620E94FD03D5CF90918A02691710F042
:100960006FEF690FE62FF0E0E958FD4F9489890F8A
:1009700080680C94FD0341E00E94AA0381E090E0AE
:100980000895FB0101900020E9F73197AF01461B64
:10099000570BDC01ED91FC910280F381E02D09946D
:1009A0008F929F92AF92BF92EF92FF920F931F93FD
:1009B000CF93DF93CDB7DEB7A1970FB6F894DEBF24
:1009C0000FBECDBF7C01FA01CB0119A2223008F481
:1009D0002AE08E010F5D1F4F822E912CB12CA12C8D
:1009E000BF01A50194010E94310EF901CA016A30CC
:1009F0000CF5605DD8016E938D01232B242B252BE4
:100A000079F790E080E0109721F0BD01C7010E94C6
:100A1000C104A1960FB6F894DEBF0FBECDBFDF9123
:100A2000CF911F910F91FF90EF90BF90AF909F904B
:100A30008F900895695CDECF4F925F926F927F92A4
:100A40008F929F92AF92BF92CF92DF92EF92FF92DE
:100A50000F931F93CF936B017C01742EAC019B010C
:100A60000E941C0E6EE171E0811126C04601570103
:100A7000E894B7F82FEF3FEF4FE75FE7C501B40108
:100A80000E941C0E81110CC02FEF3FEF4FE75FE774
:100A9000C501B4010E94520C62E271E0181664F0C4
:100AA0002FEF3FEF4FE75FE4C701B6010E94AA0DA9
:100AB0001816ACF466E271E087E792E0CF911F91DF
:100AC0000F91FF90EF90DF90CF90BF90AF909F90ED
:100AD0008F907F906F905F904F900C94C1042FEF98
:100AE0003FEF4FE75FECC701B6010E94520C87FD54
:100AF000E1CF20E030E0A901C701B6010E94520C0D
:100B000010E000E087FF0CC041E06DE287E792E073
:100B10000E94AA03F7FAF094F7F8F09401E010E0CD
:100B2000C0E060E070E080E09FE37C1641F020E0F0
:100B300030E040E251E40E94570CCF5FF6CFA701AE
:100B400096010E94E60B4B015C010E94C90C2B012F
:100B50003C012AE0BC01A20187E792E00E94D00498
:100B6000080F191FCC23D9F1C301B2010E94F80C60
:100B70009B01AC01C501B4010E94E50B4B015C0176
:100B800041E06EE287E792E00E94AA030F5F1F4FE9
:100B9000C15028F120E030E040E251E4C501B40149
:100BA0000E94AF0D2B013C010E94C90C4B01B12CDE
:100BB000A12C2AE0B501A40187E792E00E94D004AD
:100BC000080F191FC501B4010E94F80C9B01AC016C
:100BD000C301B2010E94E50B4B015C01D9CFC801F2
:100BE000CF911F910F91FF90EF90DF90CF90BF902A
:100BF000AF909F908F907F906F905F904F900895EF
:100C00001F920F920FB60F9211242F933F934F9381
:100C10005F936F937F938F939F93AF93BF93EF9364
:100C2000FF9387E691E00E941B02FF91EF91BF9135
:100C3000AF919F918F917F916F915F914F913F9174
:100C40002F910F900FBE0F901F9018951F920F922B
:100C50000FB60F9211242F938F939F93EF93FF93CF
:100C6000E0917701F09178018081E0917D01F09130
:100C70007E0182FD1BC09081809180018F5F8F7308
:100C800020918101821741F0E0918001F0E0E95963
:100C9000FE4F958F80938001FF91EF919F918F91EF
:100CA0002F910F900FBE0F901F9018958081F4CF59
:100CB0001F920F920FB60F9211242F933F938F9391
:100CC0009F93AF93BF9380915F0190916001A0913A
:100CD0006101B091620130915E0123E0230F2D3755
:100CE00058F50196A11DB11D20935E0180935F010F
:100CF00090936001A0936101B093620180916301C0
:100D000090916401A0916501B09166010196A11DC9
:100D1000B11D8093630190936401A0936501B0932A
:100D20006601BF91AF919F918F913F912F910F904D
:100D30000FBE0F901F90189526E8230F0296A11D55
:100D4000B11DD2CFCF93E7E6F1E01382128288EE95
:100D500093E0A0E0B0E084839583A683B78384E02A
:100D600091E09183808385EC90E09587848784EC83
:100D700090E09787868780EC90E0918B808B81EC68
:100D800090E0938B828B82EC90E0958B848B86EC49
:100D900090E0978B868B118E128E138E148EE7E760
:100DA000F2E01382128286E191E09183808387E0F2
:100DB00084838FEF858386E0868385E0878384E064
:100DC000808783E08187C2E0C287138614861586F8
:100DD0001686178681E00E940B04E4E0F2E04FEFF4
:100DE0005FEFBA014083518362837383108611865B
:100DF000128613868FEF99ECAAE9BBE3808B918B67
:100E0000A28BB38B808F918FA28FB38F80A391A37E
:100E1000A2A3B3A380A791A7A2A7B3A780AB91ABCE
:100E2000A2ABB3AB40AF51AF62AF73AF8FEF90E007
:100E300090934502809344024093480250934902A4
:100E400060934A0270934B024093500250935102B8
:100E500060935202709353021092580210925902FA
:100E6000C093690210926A0210926B0210926C0297
:100E700010926D0210926E0210926F021092700228
:100E80001092720210927102109274021092730208
:100E900010925A02CF910895789484B5826084BDEF
:100EA00084B5816084BD85B5826085BD85B581606E
:100EB00085BD80916E00816080936E0010928100EC
:100EC00080918100826080938100809181008160A7
:100ED0008093810080918000816080938000809168
:100EE000B10084608093B1008091B00081608093F4
:100EF000B00080917A00846080937A0080917A00BB
:100F0000826080937A0080917A00816080937A0079
:100F100080917A00806880937A001092C100E091FD
:100F20007701F091780182E08083E0917301F09184
:100F300074011082E0917501F09176018FEC80834D
:100F400010927F01E0917B01F0917C0186E080832B
:100F5000E0917901F0917A01808180618083E09154
:100F60007901F0917A01808188608083E091790134
:100F7000F0917A01808180688083E0917901F0911D
:100F80007A0180818F7D808382E00E940B0460E083
:100F900088E00E94010360E083E00E94AC046AE202
:100FA00071E087E792E00E94C10461E082E00E9464
:100FB000AC0465E371E087E792E00E94C1040E94FF
:100FC00032034B015C0138EEC32E33E0D32EE12C0B
:100FD000F12C0E943203681979098A099B09683E3D
:100FE000734081059105A8F321E0C21AD108E108F8
:100FF000F10888EE880E83E0981EA11CB11CC11474
:10100000D104E104F10429F70E940304812C912CFE
:10101000540112E02EE8222E20E0322EE6EBF0E022
:101020008491E2EAF0E0C491F101D491712C612C39
:10103000DD2399F081110E94AA02ED2FF0E0EE0F5E
:10104000FF1FE458FF4FA591B4918C91C82391E004
:1010500080E009F490E0692E782E0E9457036B011E
:101060007C0100E00E9457036C197D098E099F09DD
:10107000683E73408105910508F478C16A94672839
:1010800009F07EC0002309F47BC00E940304409055
:101090001402509015026090160270901702C090D2
:1010A0001C02D0901D02E0901E02F0901F02809161
:1010B000500290915102A0915202B09153028F3F81
:1010C0009F4FAF4FBF4F11F00E945703FFEF4F16D6
:1010D000F9EC5F06FAE96F06FBE37F0609F43FC30C
:1010E000C301B2010E94FA0C20E034E244E759E463
:1010F0000E94570C2B013C01C701B6010E94FA0C5B
:1011000020E034E244E759E40E94570C6B017C0173
:1011100060E080E00E94AC046EE471E087E792E05A
:101120000E94C10420E030E04AE754E4C301B20168
:101130000E94520C811103C0412C512C320146E017
:10114000C301B2010E941C0561E080E00E94AC0472
:1011500064E571E087E792E00E94C10420E030E09E
:101160004AE754E4C701B6010E94520C811103C042
:10117000C12CD12C760146E0C701B6010E941C05A6
:101180002AE0B501A40187E691E00E94D0046AE557
:1011900071E087E691E00E94C10480E090E0892B35
:1011A00009F43CCF0E940702882309F433CF0E9440
:1011B000000030CFCA3209F405C1CC3209F0BBC2FD
:1011C000809158028C2780935802FCC090916A024B
:1011D000F0E0E65AFD4F1082D0915902DD2309F468
:1011E0006AC120915A02822F022E000C990B3FEB0C
:1011F000320F363008F0EBC0C7978295807F909110
:101200005B02292F092E000C330B4FEB490F4630A0
:1012100008F0E5C027533109820F909158028913D5
:1012200040C1D0916C02DD2309F4CFC080917102DE
:101230009091720201969093720280937102809154
:101240004C0290914D02A0914E02B0914F028093BA
:10125000480290934902A0934A02B0934B028091B6
:10126000540290915502A0915602B091570280937A
:10127000500290935102A0935202B0935302809176
:101280006902882309F4B4C0813009F060C08091FC
:10129000080290910902A0910A02B0910B0280937A
:1012A000040290930502A0930602B0930702809176
:1012B000100290911102A0911202B091130280933A
:1012C0000C0290930D02A0930E02B0930F02809136
:1012D000180290911902A0911A02B0911B028093FA
:1012E000140290931502A0931602B09317028091F6
:1012F000200290912102A0912202B09123028093BA
:101300001C0290931D02A0931E02B0931F028091B5
:10131000300290913102A0913202B0913302809359
:101320002C0290932D02A0932E02B0932F02809155
:10133000380290913902A0913A02B0913B02809319
:10134000340290933502A0933602B0933702809115
:101350006A028F5F80936A0210926B0281E0CA3248
:1013600009F080E080935902D1110D2F87E691E0BA
:101370000E94FB01892B09F475CE87E691E00E945B
:10138000D901C82F80916D0290916E02A0916F02D9
:10139000B09170020196A11DB11D80936D029093D2
:1013A0006E02A0936F02B0937002C43209F4B6C10A
:1013B000E0916B02C5320CF0FDCECA3019F0CD3091
:1013C00009F0B9C1EF3008F401CFD0E0C0CF215609
:1013D000263018F48755910910CFC0970ECF91563B
:1013E000963018F42755310917CF2053310914CFFF
:1013F0008091280290912902A0912A02B0912B029B
:101400008093240290932502A0932602B093270292
:101410008091080290910902A0910A02B0910B02FA
:101420008093040290930502A0930602B0930702F2
:101430008091180290911902A0911A02B0911B029A
:101440008093140290931502A0931602B093170292
:101450008091200290912102A0912202B09123025A
:1014600080931C0290931D02A0931E02B0931F0252
:1014700080914602909147029093450280934402E6
:101480008091400290914102A0914202B0914302AA
:1014900080933C0290933D02A0933E02B0933F02A2
:1014A00056CF8091730290917402019690937402CA
:1014B000809373028ACF91111CC04AE552E0A2E4E6
:1014C000B1E0CA01FC012191CF01222309F450C1EE
:1014D0003D912317B9F3A8E4B1E0FA018191AF017E
:1014E000882309F449C19D918917B9F310936902C2
:1014F0002ECFE0916902E23009F467CF80915A0261
:10150000882309F462CF20E2E29FF0011124E92B45
:101510003197E932F10508F01ACFEF56F54F0C94E8
:10152000530ED70AF20A070B220B2D0B670B6E0B1B
:10153000780B830BA709A709A709A709A709A7097A
:10154000A709A709A709A709A709A709A709A7091B
:10155000A709A709A709A709A709A709A709A7090B
:10156000A709D70AEC0AF20A070B220B2D0B480B2E
:10157000530BBA0AEAE5F2E020E030E0A90141901D
:1015800080ED840D8A3008F099C0AAE0B0E00E9496
:10159000590E242D440C330B440B550B260F371FCB
:1015A000481F591F2053310941095109E8CF0E94B2
:1015B0008C00609308027093090280930A02909352
:1015C0000B020E94570360934C0270934D0280936C
:1015D0004E0290934F02BBCE91E0813409F47BC060
:1015E00090E079C00E94FE00609318027093190287
:1015F00080931A0290931B020E9457036093540237
:10160000709355028093560290935702A0CE833573
:1016100009F0DBCE8091180290911902A0911A0274
:10162000B0911B02B095A095909581959F4FAF4FBB
:10163000BF4F8093180290931902A0931A02B0939F
:101640001B0285CE0E94FE0060932002709321024F
:1016500080932202909323027ACE873509F0B5CE8B
:101660008091200290912102A0912202B091230248
:10167000B095A095909581959F4FAF4FBF4F8093A8
:10168000200290932102A0932202B09323025FCE06
:101690000E948C006093300270933102809332027A
:1016A0009093330254CE0E948C0060933802709362
:1016B000390280933A0290933B0249CE2093100264
:1016C00030931102409312025093130240CE91E0E6
:1016D00081330CF485CF90936C0239CE8AE592E089
:1016E0000E94BF0B992790934702809346022FCE0A
:1016F0000E948C00609340027093410280934202EA
:101700009093430224CE0E948C0060932802709331
:10171000290280932A0290932B0219CE10926B0219
:1017200010926A02109258021093690210925902A4
:1017300010926C021BCEEE3040F481E08E0F80934D
:101740006B02F0E0E65AFD4FC0838091590281118F
:101750000DCE80915802C827C093580207CE412C65
:10176000512C8AE7682E84E4782E73016201D0CC74
:1017700021E020936902EBCD10926902E8CDFC01D3
:1017800088279927E89421912032E9F3293010F035
:101790002E30C8F32B3241F02D3239F4689404C056
:1017A0000E94DD0B820F911D219120532A30C0F33E
:1017B0001EF4909581959F4F08957AE0979F902D04
:1017C000879F802D910D112408955058BB27AA277B
:1017D0000E94FD0B0C94700D0E94620D38F00E9467
:1017E000690D20F039F49F3F19F426F40C945F0D35
:1017F0000EF4E095E7FB0C94590DE92F0E94810D42
:1018000058F3BA17620773078407950720F079F435
:10181000A6F50C94A30D0EF4E0950B2EBA2FA02D77
:101820000B01B90190010C01CA01A0011124FF278D
:10183000591B99F0593F50F4503E68F11A16F04088
:10184000A22F232F342F4427585FF3CF4695379587
:101850002795A795F0405395C9F77EF41F16BA0B4C
:10186000620B730B840BBAF09150A1F0FF0FBB1FFA
:10187000661F771F881FC2F70EC0BA0F621F731F43
:10188000841F48F4879577956795B795F7959E3FA0
:1018900008F0B0CF9395880F08F09927EE0F979531
:1018A000879508950E94350D08F481E008950E94FF
:1018B0006B0C0C94700D0E94690D58F00E94620D23
:1018C00040F029F45F3F29F00C94590D51110C940C
:1018D000A40D0C945F0D0E94810D68F39923B1F360
:1018E000552391F3951B550BBB27AA276217730746
:1018F000840738F09F5F5F4F220F331F441FAA1FDA
:10190000A9F335D00E2E3AF0E0E832D09150504095
:10191000E695001CCAF72BD0FE2F29D0660F771F43
:10192000881FBB1F261737074807AB07B0E809F029
:10193000BB0B802DBF01FF2793585F4F3AF09E3FAE
:10194000510578F00C94590D0C94A40D5F3FE4F30D
:10195000983ED4F3869577956795B795F7959F5FF1
:10196000C9F7880F911D9695879597F90895E1E03D
:10197000660F771F881FBB1F621773078407BA079C
:1019800020F0621B730B840BBA0BEE1F88F7E095F7
:1019900008950E94890D88F09F5798F0B92F9927D4
:1019A000B751B0F0E1F0660F771F881F991F1AF04A
:1019B000BA95C9F714C0B13091F00E94A30DB1E0FF
:1019C00008950C94A30D672F782F8827B85F39F0FE
:1019D000B93FCCF3869577956795B395D9F73EF4E3
:1019E00090958095709561957F4F8F4F9F4F08958B
:1019F000E89409C097FB3EF49095809570956195A9
:101A00007F4F8F4F9F4F9923A9F0F92F96E9BB275E
:101A10009395F695879577956795B795F111F8CFDA
:101A2000FAF4BB0F11F460FF1BC06F5F7F4F8F4F45
:101A30009F4F16C0882311F096E911C0772321F03B
:101A40009EE8872F762F05C0662371F096E8862FD3
:101A500070E060E02AF09A95660F771F881FDAF72A
:101A6000880F9695879597F90895990F0008550F57
:101A7000AA0BE0E8FEEF16161706E807F907C0F014
:101A800012161306E407F50798F0621B730B840B1C
:101A9000950B39F40A2661F0232B242B252B21F4F6
:101AA00008950A2609F4A140A6958FEF811D811D96
:101AB000089597F99F6780E870E060E008959FEFD0
:101AC00080EC089500240A941616170618060906D5
:101AD000089500240A9412161306140605060895A4
:101AE000092E0394000C11F4882352F0BB0F40F42C
:101AF000BF2B11F460FF04C06F5F7F4F8F4F9F4F6C
:101B0000089557FD9058440F551F59F05F3F71F0ED
:101B10004795880F97FB991F61F09F3F79F0879554
:101B20000895121613061406551FF2CF4695F1DFDD
:101B300008C0161617061806991FF1CF869571056D
:101B4000610508940895E894BB2766277727CB01A1
:101B500097F908950E94350D08F48FEF08950E94BB
:101B6000C20D0C94700D0E94620D38F00E94690D38
:101B700020F0952311F00C94590D0C945F0D112455
:101B80000C94A40D0E94810D70F3959FC1F3950FE5
:101B900050E0551F629FF001729FBB27F00DB11DF1
:101BA000639FAA27F00DB11DAA1F649F6627B00D81
:101BB000A11D661F829F2227B00DA11D621F739F6A
:101BC000B00DA11D621F839FA00D611D221F749F78
:101BD0003327A00D611D231F849F600D211D822FBF
:101BE000762F6A2F11249F5750409AF0F1F08823E6
:101BF0004AF0EE0FFF1FBB1F661F771F881F915013
:101C00005040A9F79E3F510580F00C94590D0C945B
:101C1000A40D5F3FE4F3983ED4F3869577956795DE
:101C2000B795F795E7959F5FC1F7FE2B880F911D3C
:101C30009695879597F908950E94350D880B990B15
:101C40000895DB018F939F930E94590EBF91AF912E
:101C5000A29F800D911DA39F900DB29F900D112406
:101C60000895A1E21A2EAA1BBB1BFD010DC0AA1FDD
:101C7000BB1FEE1FFF1FA217B307E407F50720F0F5
:101C8000A21BB30BE40BF50B661F771F881F991F70
:101C90001A9469F760957095809590959B01AC01B9
:101CA000BD01CF010895EE0FFF1F0590F491E02DC7
:101CB00009940E946C0EA59F900DB49F900DA49F57
:101CC000800D911D11240895B7FF0C94590E0E94A8
:101CD000590E821B930B0895A29FB001B39FC001C0
:101CE000A39F700D811D1124911DB29F700D811D48
:0A1CF0001124911D0895F894FFCF10
:101CFA00000000003D029D01CA018A02FB01D901D0
:101D0A00ED0100000000BB049D01640363036E61E2
:101D1A006E00696E66006F76660050726F6A656360
:101D2A00742062790053617479616D2053696E671A
:101D3A0068004750524D43004750474741004C61A5
:0E1D4A00743D20004C6F6E3D20000D0A00001D
:00000001FF
