:100000000C9462000C948A000C948A000C948A0070
:100010000C948A000C948A000C948A000C948A0038
:100020000C948A000C948A000C948A000C948A0028
:100030000C948A000C948A000C948A000C948A0018
:100040000C941B0A0C948A000C94E9090C94C309C3
:100050000C948A000C948A000C948A000C948A00F8
:100060000C948A000C948A000000000024002700F1
:100070002A0000000000250028002B0000000000DE
:1000800023002600290004040404040404040202DA
:100090000202020203030303030301020408102007
:1000A0004080010204081020010204081020000012
:1000B0000008000201000003040700000000000027
:1000C0000000650A11241FBECFEFD8E0DEBFCDBF10
:1000D00011E0A0E0B1E0E8E2F5E202C005900D9287
:1000E000A23EB107D9F723E0A2EEB1E001C01D9214
:1000F000AE31B207E1F710E0C2E6D0E004C02197CC
:10010000FE010E946512C136D107C9F70E94310B6A
:100110000C9492120C940000EBEEF1E0A089B189EE
:1001200082E08C93A485B5851C92A685B7858FEC5B
:100130008C93108EA489B58986E08C93A289B389AB
:100140008C9180618C93A289B3898C9188608C9307
:10015000A289B3898C9180688C930288F389E02D01
:1001600080818F7D808308950F931F93CF93DF93BA
:10017000C091E902EAEEF2E0CD3211F0E9EEF2E0F0
:100180008F0120E030E0A901D801DD918D0180EDE3
:100190008D0F8A3090F4AAE0B0E00E946B122D2FF0
:1001A000DD0F330B440B550B260F371F481F591F0C
:1001B0002053310941095109E7CFA4E6B0E00E947C
:1001C0006B12AB01BC01DF01819190ED980F9A3069
:1001D000D0F38E3259F511968C91119790ED980FBE
:1001E0009A3020F5082E000C990BC0972AE0289F22
:1001F0008001299F100D1124012E000C220B330BBE
:10020000400F511F621F731F12968C9190ED980F33
:100210009A3060F4082E000C990BC097092E000C40
:10022000AA0BBB0B480F591F6A1F7B1FCD3239F435
:1002300070956095509541955F4F6F4F7F4FCB0103
:10024000BA01DF91CF911F910F9108954F925F9264
:100250006F927F928F929F92AF92BF92CF92DF92D6
:10026000EF92FF921F93CF93DF93C9EED2E0FE018E
:10027000C12CD12C7601119180ED810F8A30A8F428
:10028000AAE0B0E0A70196010E946B12C12E110FE7
:10029000DD08EE08FF08C60ED71EE81EF91E80E333
:1002A000C81AD108E108F108E6CFC701B60124E673
:1002B00030E040E050E00E9443129B01AC0160EA54
:1002C00076E881E090E00E9433124B015C019E01D0
:1002D000899190ED980F9A30D0F38E3221F5E90193
:1002E000219680E1482E87E2582E612C712CA9912D
:1002F00080ED8A0F8A30B8F40A2E000CBB0BD09721
:10030000A30192010E947612860E971EA81EB91EA6
:10031000C301B2012AE030E040E050E00E94431205
:1003200029013A01E4CFC701B60124E630E040E0FC
:1003300050E00E94431260E472E48FE090E00E947B
:1003400033126B017C01C501B4016D5F7F4F8F4F8C
:100350009F4F26E030E040E050E00E944312C7018A
:10036000B601620F731F841F951FDF91CF911F91FC
:10037000FF90EF90DF90CF90BF90AF909F908F90C5
:100380007F906F905F904F900895AF92BF92CF9201
:10039000DF92EF92FF920F931F93CF93DF936C0145
:1003A0007B018B01040F151FEB015E01AE18BF0826
:1003B000C017D10759F06991D601ED91FC910190D8
:1003C000F081E02DC6010995892B79F7C501DF91F0
:1003D000CF911F910F91FF90EF90DF90CF90BF9042
:1003E000AF900895FC01538D448D252F30E0842F6C
:1003F00090E0821B930B541710F0CF96089501974D
:100400000895FC01918D828D981761F0A28DAE0F39
:10041000BF2FB11D5D968C91928D9F5F9F73928FC0
:1004200090E008958FEF9FEF0895FC01918D828DEC
:10043000981731F0828DE80FF11D858D90E00895B9
:100440008FEF9FEF0895FC01918D228D892F90E011
:10045000805C9F4F821B91098F73992708958BEEC3
:1004600091E00E94230221E0892B09F420E0822FF1
:10047000089580E090E0892B29F00E942F028111DD
:100480000C9400000895FC01A48DA80FB92FB11D94
:10049000A35ABF4F2C91848D90E001968F739927BA
:1004A000848FA689B7892C93A089B1898C91837098
:1004B00080648C93938D848D981306C00288F38991
:1004C000E02D80818F7D80830895EF92FF920F93BE
:1004D0001F93CF93DF93EC0181E0888F9B8D8C8DF0
:1004E00098131AC0E889F989808185FF15C09FB7E4
:1004F000F894EE89FF896083E889F98980818370A7
:10050000806480839FBF81E090E0DF91CF911F9155
:100510000F91FF90EF900895F62E0B8D10E00F5F76
:100520001F4F0F731127E02E8C8D8E110CC00FB64C
:1005300007FCFACFE889F989808185FFF5CFCE01E4
:100540000E944302F1CFEB8DEC0FFD2FF11DE35A1A
:10055000FF4FF0829FB7F8940B8FEA89FB89808167
:100560008062CFCFCF93DF93EC01888D8823B9F0E1
:10057000AA89BB89E889F9898C9185FD03C08081AE
:1005800086FD0DC00FB607FCF7CF8C9185FFF2CF2B
:10059000808185FFEDCFCE010E944302E9CFDF913C
:1005A000CF910895833081F028F4813099F0823022
:1005B000A9F008958730A9F08830C9F08430B1F4EB
:1005C000809180008F7D03C0809180008F77809321
:1005D0008000089584B58F7784BD089584B58F7D9C
:1005E000FBCF8091B0008F778093B0000895809109
:1005F000B0008F7DF9CFCF93DF93282F30E0F90142
:10060000E255FF4F8491F901E656FF4FD491F9016D
:10061000EA57FF4FC491CC23A1F081110E94D2026E
:10062000EC2FF0E0EE0FFF1FE458FF4FA591B491BF
:10063000EC91ED2381E090E009F480E0DF91CF912F
:10064000089580E090E0FACF1F93CF93DF93282F97
:1006500030E0F901E255FF4F8491F901E656FF4F72
:10066000D491F901EA57FF4FC491CC23A9F0162F7A
:1006700081110E94D202EC2FF0E0EE0FFF1FEE5826
:10068000FF4FA591B4918FB7F894EC91111108C068
:10069000D095DE23DC938FBFDF91CF911F9108951A
:1006A000DE2BF8CFCF93DF9390E0FC01E656FF4FAF
:1006B00024918A579F4FFC0184918823C9F090E0D0
:1006C000880F991FFC01E859FF4FA591B491FC01D7
:1006D000EE58FF4FC591D49161110DC09FB7F894AA
:1006E0008C91209582238C938881282328839FBF17
:1006F000DF91CF910895623051F49FB7F8943C9107
:10070000822F809583238C93E8812E2BEFCF8FB798
:10071000F894EC912E2B2C938FBFEACF3FB7F8942F
:100720008091E7019091E801A091E901B091EA017F
:1007300026B5A89B05C02F3F19F00196A11DB11D3C
:100740003FBFBA2FA92F982F8827BC01CD01620F78
:10075000711D811D911D42E0660F771F881F991F33
:100760004A95D1F708958F929F92AF92BF92CF9200
:10077000DF92EF92FF924B015C010E948E036B01AE
:100780007C010E948E036C197D098E099F09683EC9
:10079000734081059105A8F321E0821A9108A10810
:1007A000B10888EEC80E83E0D81EE11CF11C81144C
:1007B0009104A104B10429F7FF90EF90DF90CF904E
:1007C000BF90AF909F908F9008952FB7F89460914D
:1007D000E3017091E4018091E5019091E6012FBF62
:1007E0000895CF92DF92EF92FF920F931F93CF93D2
:1007F000DF93EC017A016901E881F9810190F081D0
:10080000E02D0995E881F9810084F185E02D9801BA
:10081000A601B701CE01DF91CF911F910F91FF90FB
:10082000EF90DF90CF9009946F927F928F929F927A
:10083000AF92BF92CF92DF92EF92FF920F931F93EE
:10084000CF93DF93CDB7DEB729970FB6F894DEBF0D
:100850000FBECDBFDC011696ED91FC91319609F4E7
:1008600080C059013A016B018C01FE0131964F01A4
:1008700085E0DF011D928A95E9F7D801ED91FC91A1
:100880000488F589E02DB401C80109957C01892B04
:1008900009F051C01F821E8219861886D801ED9179
:1008A000FC910688F789E02D9E01285F3F4FAE013D
:1008B0004A5F5F4FB401C80109957C01892BD9F5C6
:1008C000A114B10439F085E0F401D50101900D9235
:1008D0008A95E1F70E811F81C114D10479F0612F4F
:1008E000772767FD7A95072E000C880B990B0E94DD
:1008F0000C11F60160837183828393836114710408
:1009000089F08985682F782F770F770B072E000CD9
:10091000880B990B0E940C11D3016D937D938D93DD
:100920009C931397012B39F488859985892B19F4A9
:1009300096E1E92EF12CC70129960FB6F894DEBF97
:100940000FBECDBFDF91CF911F910F91FF90EF9020
:10095000DF90CF90BF90AF909F908F907F906F90DF
:10096000089587E1E82EF12CE6CF8F929F92AF9207
:10097000BF92CF92DF92EF92FF920F931F93CF938C
:10098000DF93EC018B016A017901E881F98102882A
:10099000F389E02DDB016C910995B82EE881F9818E
:1009A0000288F389E02DD80111966C91CE0109954A
:1009B000982EE881F9810288F389E02DD8011296FA
:1009C0006C91CE010995A82EE881F9810288F389FE
:1009D000E02DD80113966C91CE010995882EE881FF
:1009E000F9810288F389E02DD80114966C91CE012B
:1009F00009959B2D990D9A0D980D891319C09A2D63
:100A0000882DF601918380839B2D892DD7018D93AD
:100A10009C9390E080E0DF91CF911F910F91FF9028
:100A2000EF90DF90CF90BF90AF909F908F90089500
:100A300085E190E0F0CF629570E09B0135952795B8
:100A4000359527952373660F771F660F771F6C7C8C
:100A5000262B30E0C901959587958575220F331FA8
:100A60002A7A822B08953F924F925F926F927F92E3
:100A70008F929F92AF92BF92CF92DF92EF92FF92AE
:100A80000F931F93CF93DF93EC01162F7A01690127
:100A90000E948E034B015C01312C11113984360107
:100AA000660C771C660C771C85E0681A71082701B4
:100AB000440C551C440C551C85E0481A510810E0A4
:100AC00000E060E070E0CB012A813B814C815D81D8
:100AD00026173707480759070CF10115110599F535
:100AE00082E0E816F1041CF0C2010197F1F70E94C0
:100AF0008E03681979098A099B09EA85F0E0EE0FEF
:100B0000FF1FE458FF4FA591B4912C910F5F1F4F29
:100B100039852323231105C097FFD6CF6FEF7FEFD1
:100B2000CB01DF91CF911F910F91FF90EF90DF905C
:100B3000CF90BF90AF909F908F907F906F905F907D
:100B40004F903F90089582E0C816D10484F2C3010B
:100B5000CCCFFC01828590E00895FC01818590E076
:100B60000895CF92DF92EF92FF920F931F93CF934E
:100B7000DF93EC017A016901E881F9810190F0814C
:100B8000E02D0995E881F9810480F581E02D980137
:100B9000A601B701CE01DF91CF911F910F91FF9078
:100BA000EF90DF90CF900994CF92DF92EF92FF9277
:100BB0000F931F93CF93DF93CDB7DEB728970FB670
:100BC000F894DEBF0FBECDBFDC011696ED91FC910F
:100BD000319609F440C08A017B0119821A821B8276
:100BE0001C821D821E821F821886DC01ED91FC9101
:100BF0000084F185E02DAE014B5F5F4FBE016F5F5A
:100C00007F4F09956C01892BB1F4E114F10441F097
:100C100069817A818B819C810E94D410F701608365
:100C20000115110541F06D817E818F8198850E94AB
:100C3000D410D8016C93C60128960FB6F894DEBF85
:100C40000FBECDBFDF91CF911F910F91FF90EF901D
:100C5000DF90CF90089587E1C82ED12CECCF262FBE
:100C60002D7F29F4FC01608790E080E0089588E101
:100C700090E00895DC0117967C936E931697FB0124
:100C8000E656FF4FE4911996EC9319976A577F4FF8
:100C9000FB0164911A966C930895089590E080E0AA
:100CA0000895CF93DF93EC0160E08E810E942403CE
:100CB00061E08E810E94240360E08E810E94240303
:100CC0008BE891E00197F1F7DF91CF910895CF92F2
:100CD000DF92EF92FF920F931F93CF93DF936C01FC
:100CE0007C0187E0E80EF11CD0E0C0E0062F10E0A8
:100CF000B8010C2E02C0759567950A94E2F76170F1
:100D0000F70181917F010E9424032196C430D1050F
:100D100079F7C601DF91CF911F910F91FF90EF906E
:100D2000DF90CF900C945106CF92DF92EF92FF921A
:100D30000F931F93CF93DF93EC01F62E642F8C81DA
:100D40000E9424038D818F3F19F060E00E942403EC
:100D50000F2D10E08F8584FF25C06E0187E0C80E3F
:100D6000D11CF12CE12CB8010E2C02C075956795B1
:100D70000A94E2F76170F60181916F010E942403E9
:100D8000FFEFEF1AFF0A88E0E816F10461F7CE01E1
:100D9000DF91CF911F910F91FF90EF90DF90CF9057
:100DA0000C945106B80184E0759567958A95E1F732
:100DB000CE010E9467066F2DCE01DF91CF911F916A
:100DC0000F91FF90EF90DF90CF900C94670640E07A
:100DD000682F86E093E00C94940681E00E94E70679
:100DE0008BE39FE10197F1F70895CF93DF93823072
:100DF00029F490911503986090931503809319033B
:100E000010921A0380E480931B0380E180931C03FB
:100E100080E580931D0361E080910A030E945203E4
:100E200080910B038F3F19F061E00E94520361E053
:100E300080910C030E945203C6E0D3E09E0126502D
:100E400033408091150384FD0BC084E090E021962F
:100E50002817390744F461E08E810E945203EECFD7
:100E600088E090E0F4CF8BE39DE00197F1F760E03C
:100E700080910A030E94240360E080910C030E9489
:100E8000240380910B038F3F19F060E00E9424033C
:100E90008091150384FD34C063E086E093E00E94F6
:100EA0006706CBE4D6E4CE010197F1F763E086E074
:100EB00093E00E9467062197F1F763E086E093E0F4
:100EC0000E94670683E592E00197F1F762E086E011
:100ED00093E00E9467068091150380620E94E706F6
:100EE00084E0809316038CE00E94E7060E94ED06E2
:100EF00082E08093170386E0DF91CF910C94E706A0
:100F000080620E94E7068BE496E40197F1F78091F6
:100F1000150380620E94E70683E592E00197F1F7EE
:100F20008091150380620E94E706D5CF9091190346
:100F3000891710F08FEF890FE82FF0E0EA5FFC4F80
:100F4000848980680C94E70641E00E94940681E061
:100F500090E008950E948D12FB0101900020E9F7B6
:100F60003197AF01461B570BDC01ED91FC910280DC
:100F7000F381E02D09948F929F92AF92BF92EF92EE
:100F8000FF920F931F93CF93DF93CDB7DEB7A19757
:100F90000FB6F894DEBF0FBECDBF7C01FA01CB01C6
:100FA00019A2223008F42AE08E010F5D1F4F822E15
:100FB000912CB12CA12CBF01A50194010E944312D8
:100FC000F901CA016A300CF5605DD8016E938D019C
:100FD000232B242B252B79F790E080E0109721F02C
:100FE000BD01C7010E94AC07A1960FB6F894DEBF01
:100FF0000FBECDBFDF91CF911F910F91FF90EF906A
:10100000BF90AF909F908F900895695CDECFAC0148
:10101000990F660B770B2AE08BEE91E00C94BB07DF
:101020004F925F926F927F928F929F92AF92BF92F8
:10103000CF92DF92EF92FF92CF93DF936B017C010F
:10104000AC019B010E942E1266E571E0811126C061
:1010500046015701E894B7F82FEF3FEF4FE75FE7FE
:10106000C501B4010E942E1281110CC02FEF3FEF79
:101070004FE75FE7C501B4010E945D106AE571E0CA
:10108000181664F02FEF3FEF4FE75FE4C701B6019A
:101090000E94BC111816A4F46EE571E086E093E09E
:1010A000DF91CF91FF90EF90DF90CF90BF90AF9006
:1010B0009F908F907F906F905F904F900C94AC07B3
:1010C0002FEF3FEF4FE75FECC701B6010E945D10C5
:1010D00087FDE2CF20E030E0A901C701B6010E9400
:1010E0005D10D0E0C0E087FF0CC041E06DE286E01B
:1010F00093E00E949406F7FAF094F7F8F094C1E0B8
:10110000D0E02CEB37E346E055E3C701B6010E947F
:10111000F10F4B015C010E94DB106B017C010E940E
:101120000A119B01AC01C501B4010E94F00F4B01F3
:101130005C012AE0B701A60186E093E00E94BB07AC
:101140007C01EC0EFD1E41E06EE286E093E00E9421
:1011500094068FEFE81AF80AC7E0C15029F120E0A1
:1011600030E040E251E4C501B4010E94C1112B01FD
:101170003C010E94DB104B01B12CA12C2AE0B501EF
:10118000A40186E093E00E94BB07E80EF91EC501AA
:10119000B4010E940A119B01AC01C301B2010E947B
:1011A000F00F4B015C01D9CFC701DF91CF91FF90C8
:1011B000EF90DF90CF90BF90AF909F908F907F90F7
:1011C0006F905F904F9008954F925F926F927F92D1
:1011D0008F929F92AF92BF92EF92FF920F931F93C5
:1011E000CF93DF93EC017B0185E0FB0111928A959F
:1011F000E9F761E08E810E94520360E08E810E94D7
:10120000240364E170E080E090E00E94B30361E0B9
:101210008E810E94240368858E810E9452038FE58F
:1012200090E00197F1F7E881F9810088F189E02DDC
:1012300026E030E04AE050E060E0CE0109956E31F2
:10124000710581059105ACF4982F872F762F6627BD
:101250006061CB01DF91CF911F910F91FF90EF90D3
:10126000BF90AF909F908F907F906F905F904F90C6
:101270000895E881F9810088F189E02D26E030E0C9
:101280004AE050E061E0CE010995623371058105C5
:10129000910534F4982F872F762F66276161D9CF77
:1012A00010E000E0812C912C54018394E881F981B5
:1012B0000088F189E02D26E030E04AE050E060E06F
:1012C000CE010995683171058105910534F4982F97
:1012D000872F762F66276261BCCFE881F98100886D
:1012E000F189E02D26E030E04AE050E061E0CE01F7
:1012F00009956B3071058105910534F4982F872F7E
:10130000762F66276361A5CFF80133E0F595E79561
:101310003A95E1F7EE0DFF1D980127703327240160
:10132000350104C0440C551C661C771C2A95D2F765
:1013300020816932710581059105FCF0422A4082C5
:101340000F5F1F4F0832110509F0B0CFE881F98116
:101350000088F189E02D26E030E04AE050E060E0CE
:10136000CE01099568317105810591054CF4982FDE
:10137000872F762F662764616CCF40944222DFCF9F
:1013800070E060E066CF1F920F920FB60F921124AB
:101390002F933F934F935F936F937F938F939F937D
:1013A000AF93BF93EF93FF938BEE91E00E944302C4
:1013B000FF91EF91BF91AF919F918F917F916F912D
:1013C0005F914F913F912F910F900FBE0F901F9003
:1013D00018951F920F920FB60F9211242F938F938F
:1013E0009F93EF93FF93E091FB01F091FC018081CB
:1013F000E0910102F091020282FD1BC09081809178
:1014000004028F5F8F7320910502821741F0E091F3
:101410000402F0E0E551FE4F958F80930402FF91A6
:10142000EF919F918F912F910F900FBE0F901F9072
:1014300018958081F4CF1F920F920FB60F9211244E
:101440002F933F938F939F93AF93BF938091E3012B
:101450009091E401A091E501B091E6013091E201A3
:1014600023E0230F2D3758F50196A11DB11D2093C0
:10147000E2018093E3019093E401A093E501B0932E
:10148000E6018091E7019091E801A091E901B09116
:10149000EA010196A11DB11D8093E7019093E80137
:1014A000A093E901B093EA01BF91AF919F918F9111
:1014B0003F912F910F900FBE0F901F90189526E827
:1014C000230F0296A11DB11DD2CF1F93CF93DF939F
:1014D000EBEEF1E01382128288EE93E0A0E0B0E040
:1014E00084839583A683B78384E091E0918380838E
:1014F00085EC90E09587848784EC90E097878687D9
:1015000080EC90E0918B808B81EC90E0938B828BD0
:1015100082EC90E0958B848B86EC90E0978B868BA9
:10152000118E128E138E148EE6E0F3E01382128277
:101530008EE491E09183808387E084831FEF15839D
:1015400086E0868385E0878384E0808783E08187E7
:10155000C2E0C2871386148615861686178681E038
:101560000E94F506E3E9F2E04FEF5FEFBA01408336
:1015700051836283738310861186128613868FEFE0
:1015800099ECAAE9BBE3808B918BA28BB38B808F04
:10159000918FA28FB38F80A391A3A2A3B3A380A79F
:1015A00091A7A2A7B3A780AB91ABA2ABB3AB40AF5F
:1015B00051AF62AF73AF8FEF90E09093D4028093FE
:1015C000D3024093D7025093D8026093D90270930C
:1015D000DA024093DF025093E0026093E1027093DD
:1015E000E2021092E7021092E802C093F802109211
:1015F000F9021092FA021092FB021092FC02109271
:10160000FD021092FE021092FF021092010310924E
:10161000000310920303109202031092E902C8E83B
:10162000D2E086E191E09983888380E291EAA7E0A5
:10163000B0E08A839B83AC83BD838FEF9FEF9F8352
:101640008E83188619871A876AE070E0CE010E949F
:101650003A0682E391E099838883DF91CF911F91CD
:101660000895CF93DF9300D0CDB7DEB7789484B5DB
:10167000826084BD84B5816084BD85B5826085BD8E
:1016800085B5816085BD80916E00816080936E001C
:10169000109281008091810082608093810080910E
:1016A00081008160809381008091800081608093BF
:1016B00080008091B10084608093B1008091B0007F
:1016C00081608093B00080917A00846080937A007A
:1016D00080917A00826080937A0080917A008160A4
:1016E00080937A0080917A00806880937A001092CB
:1016F000C1000E948C0082E00E94F50660E088E054
:101700000E94520368EE73E080E090E00E94B30311
:1017100060E08EE00E94520361E089E00E94520383
:1017200080E00E94960762E671E086E093E00E9406
:10173000AC0781E00E94960763E771E086E093E0E2
:101740000E94AC0768EE73E080E090E00E94B30373
:101750000E94ED060E948C00812C912C540120E007
:10176000222E20E0322E88E00E94FB026C018EE0E7
:101770000E94FB02019709F004C161E089E00E9428
:10178000240380E00E94960764E871E086E093E01D
:101790000E94AC0781E00E94960765E971E086E04F
:1017A00093E00E94AC0764E670E080E090E00E9465
:1017B000B3030E94E5032B013C01F12C0E94E503D9
:1017C0006419750986099709683E7340810591057A
:1017D00008F4BAC1CA94CD2809F082C0FF2009F4E8
:1017E0007FC00E94ED064090A3025090A40260903A
:1017F000A5027090A602C090AB02D090AC02E0901F
:10180000AD02F090AE028091DF029091E002A091D3
:10181000E102B091E2028F3F9F4FAF4FBF4F11F0F7
:101820000E94E5032FEF421629EC52062AE96206D0
:101830002BE3720609F483C3C301B2010E940C11A9
:1018400020E034E244E759E40E9462102B013C019D
:10185000C701B6010E940C1120E034E244E759E4CC
:101860000E9462106B017C0180E00E94960760EB91
:1018700071E086E093E00E94AC0720E030E04AE7A8
:1018800054E4C301B2010E945D10811103C0412CD8
:10189000512C3201C301B2010E94100881E00E9464
:1018A000960766EB71E086E093E00E94AC0720E0CB
:1018B00030E04AE754E4C701B6010E945D1081118F
:1018C00003C0C12CD12C7601C701B6010E941008BB
:1018D00068EE73E080E090E00E94B3030E94ED06A2
:1018E0002AE0B501A4018BEE91E00E94BB076CEBEE
:1018F00071E08BEE91E00E94AC071A82198230E011
:1019000020E0AE014F5F5F4FBE016E5F7F4F88E802
:1019100092E00E94D4058C01892B09F419C36FEB66
:1019200071E08BEE91E00E94AC07C80199270E94FC
:10193000070867ED71E08BEE91E00E94AC07012F84
:101940001127A80170E060E02AE08BEE91E00E9490
:10195000BB076CEB71E08BEE91E00E94AC0768EE88
:1019600073E080E090E00E94B3032114310409F495
:10197000FACE0E942F02882309F4F1CE0E940000C3
:10198000EECE0E94ED0660E089E00E94240311CFB4
:101990001A3209F405C11C3209F0BDC28091E70278
:1019A00081278093E702FCC09091F902F0E0E751B3
:1019B000FD4F10820091E802002309F46AC12091D2
:1019C000E902822F022E000C990B3FEB320F3630CA
:1019D00008F0EBC0C7978295807F9091EA02292F8B
:1019E000092E000C330B4FEB490F463008F0E5C0D1
:1019F00027533109820F9091E702891340C100916A
:101A0000FB02002309F4CFC08091000390910103F1
:101A1000019690930103809300038091DB029091E3
:101A2000DC02A091DD02B091DE028093D702909398
:101A3000D802A093D902B093DA028091E302909188
:101A4000E402A091E502B091E6028093DF02909358
:101A5000E002A093E102B093E2028091F8028823B1
:101A600009F4B4C0813009F060C080919702909170
:101A70009802A0919902B0919A0280939302909358
:101A80009402A0939502B093960280919F02909148
:101A9000A002A091A102B091A20280939B02909318
:101AA0009C02A0939D02B0939E028091A702909108
:101AB000A802A091A902B091AA028093A3029093D8
:101AC000A402A093A502B093A6028091AF029091C8
:101AD000B002A091B102B091B2028093AB02909398
:101AE000AC02A093AD02B093AE028091BF02909180
:101AF000C002A091C102B091C2028093BB02909338
:101B0000BC02A093BD02B093BE028091C702909127
:101B1000C802A091C902B091CA028093C3029093F7
:101B2000C402A093C502B093C6028091F9028F5FF0
:101B30008093F9021092FA0281E01A3209F080E0F3
:101B40008093E8020111F02E8BEE91E00E942302B7
:101B5000892B09F433CE8BEE91E00E940102182FFD
:101B60008091FC029091FD02A091FE02B091FF02D3
:101B70000196A11DB11D8093FC029093FD02A093DC
:101B8000FE02B093FF02143209F4B7C1E091FA02E9
:101B900015320CF0FDCE1A3019F01D3009F0BBC122
:101BA000EF3008F401CF00E0C0CF2156263018F402
:101BB0008755910910CFC0970ECF9156963018F4E3
:101BC0002755310917CF2053310914CF8091B7021F
:101BD0009091B802A091B902B091BA028093B30279
:101BE0009093B402A093B502B093B602809197028D
:101BF00090919802A0919902B0919A0280939302D9
:101C000090939402A0939502B09396028091A702BC
:101C10009091A802A091A902B091AA028093A30278
:101C20009093A402A093A502B093A6028091AF0264
:101C30009091B002A091B102B091B2028093AB0238
:101C40009093AC02A093AD02B093AE028091D50206
:101C50009091D6029093D4028093D3028091CF02C8
:101C60009091D002A091D102B091D2028093CB0288
:101C70009093CC02A093CD02B093CE0256CF809128
:101C80000203909103030196909303038093020350
:101C90008ACF91111DC0A9EEB2E044EA51E09D0146
:101CA000F90181919F01882309F46DC1FA01919195
:101CB000AF018917A9F3EAEAF1E08D91882309F4CD
:101CC00066C191918917C9F3E2E0E093F8022DCF44
:101CD000E091F802E23009F466CF8091E9028823AE
:101CE00009F461CF20E2E29FF0011124E92B319742
:101CF000E932F10508F019CFE058F14F0C94651264
:101D0000C60EE10EF60E110F1C0F560F5D0F670F7A
:101D1000720F950D950D950D950D950D950D950DD4
:101D2000950D950D950D950D950D950D950D950DA3
:101D3000950D950D950D950D950D950D950D950D93
:101D4000C60EDB0EE10EF60E110F1C0F370F420F01
:101D5000A90EE9EEF2E020E030E0A901E19080ED8B
:101D60008E0D8A3008F099C0AAE0B0E00E946B1294
:101D70002E2DEE0C330B440B550B260F371F481F2F
:101D8000591F2053310941095109E8CF0E94B4007D
:101D900060939702709398028093990290939A02AD
:101DA0000E94E5036093DB027093DC028093DD0206
:101DB0009093DE02BACE91E0813409F47BC090E0CA
:101DC00079C00E9426016093A7027093A8028093B5
:101DD000A9029093AA020E94E5036093E302709324
:101DE000E4028093E5029093E6029FCE833509F0EA
:101DF000DACE8091A7029091A802A091A902B09199
:101E0000AA02B095A095909581959F4FAF4FBF4F77
:101E10008093A7029093A802A093A902B093AA026C
:101E200084CE0E9426016093AF027093B00280932B
:101E3000B1029093B20279CE873509F0B4CE809189
:101E4000AF029091B002A091B102B091B202B095F0
:101E5000A095909581959F4FAF4FBF4F8093AF0254
:101E60009093B002A093B102B093B2025ECE0E94F2
:101E7000B4006093BF027093C0028093C10290933C
:101E8000C20253CE0E94B4006093C7027093C8028E
:101E90008093C9029093CA0248CE20939F02309348
:101EA000A0024093A1025093A2023FCE91E0813361
:101EB0000CF485CF9093FB0238CE89EE92E00E941D
:101EC000CA0F99279093D6028093D5022ECE0E94F6
:101ED000B4006093CF027093D0028093D1029093AC
:101EE000D20223CE0E94B4006093B7027093B8026E
:101EF0008093B9029093BA0218CE1092FA0210920F
:101F0000F9021092E70282E08093F8021092E80250
:101F10001092FB0219CEEE3040F481E08E0F8093D8
:101F2000FA02F0E0E751FD4F10838091E802811141
:101F30000BCE8091E70218271093E70205CE412CC3
:101F4000512C9AE7692E94E4792E730162018CCCAE
:101F50008A8190E00E94070869ED71E08BEE91E0C4
:101F60000E94AC07898190E00E9407086FED71E044
:101F70008BEE91E00E94AC076CEB71E08BEE91E090
:101F80000E94AC07F2CC81E08093F802CECD109293
:101F9000F802CBCDFC0188279927E89421912032C3
:101FA000E9F3293010F02E30C8F32B3241F02D32F6
:101FB00039F4689404C00E94E80F820F911D2191AA
:101FC00020532A30C0F31EF4909581959F4F0895B9
:101FD0007AE0979F902D879F802D910D1124089571
:101FE0005058BB27AA270E9408100C9482110E9407
:101FF000741138F00E947B1120F039F49F3F19F4DE
:1020000026F40C9471110EF4E095E7FB0C946B111F
:10201000E92F0E94931158F3BA17620773078407D8
:10202000950720F079F4A6F50C94B5110EF4E0951F
:102030000B2EBA2FA02D0B01B90190010C01CA0182
:10204000A0011124FF27591B99F0593F50F4503E2D
:1020500068F11A16F040A22F232F342F4427585F1F
:10206000F3CF469537952795A795F0405395C9F737
:102070007EF41F16BA0B620B730B840BBAF09150EF
:10208000A1F0FF0FBB1F661F771F881FC2F70EC08E
:10209000BA0F621F731F841F48F487957795679561
:1020A000B795F7959E3F08F0B0CF9395880F08F04D
:1020B0009927EE0F9795879508950E94471108F488
:1020C00081E008950E9476100C9482110E947B1189
:1020D00058F00E94741140F029F45F3F29F00C94ED
:1020E0006B1151110C94B6110C9471110E94931143
:1020F00068F39923B1F3552391F3951B550BBB2737
:10210000AA2762177307840738F09F5F5F4F220F7B
:10211000331F441FAA1FA9F335D00E2E3AF0E0E872
:1021200032D091505040E695001CCAF72BD0FE2FBC
:1021300029D0660F771F881FBB1F26173707480750
:10214000AB07B0E809F0BB0B802DBF01FF27935808
:102150005F4F3AF09E3F510578F00C946B110C9450
:10216000B6115F3FE4F3983ED4F386957795679573
:10217000B795F7959F5FC9F7880F911D969587953D
:1021800097F90895E1E0660F771F881FBB1F62175C
:1021900073078407BA0720F0621B730B840BBA0B1A
:1021A000EE1F88F7E09508950E94DB106894B11146
:1021B0000C94B61108950E949B1188F09F5798F0D7
:1021C000B92F9927B751B0F0E1F0660F771F881F3C
:1021D000991F1AF0BA95C9F714C0B13091F00E9456
:1021E000B511B1E008950C94B511672F782F8827A9
:1021F000B85F39F0B93FCCF3869577956795B3957D
:10220000D9F73EF490958095709561957F4F8F4FEB
:102210009F4F0895E89409C097FB3EF490958095F0
:10222000709561957F4F8F4F9F4F9923A9F0F92F9C
:1022300096E9BB279395F695879577956795B7951A
:10224000F111F8CFFAF4BB0F11F460FF1BC06F5F00
:102250007F4F8F4F9F4F16C0882311F096E911C012
:10226000772321F09EE8872F762F05C0662371F033
:1022700096E8862F70E060E02AF09A95660F771F47
:10228000881FDAF7880F9695879597F90895990F23
:102290000008550FAA0BE0E8FEEF16161706E80730
:1022A000F907C0F012161306E407F50798F0621B51
:1022B000730B840B950B39F40A2661F0232B242B26
:1022C000252B21F408950A2609F4A140A6958FEF45
:1022D000811D811D089597F99F6780E870E060E097
:1022E00008959FEF80EC089500240A9416161706AF
:1022F00018060906089500240A94121613061406F7
:1023000005060895092E0394000C11F4882352F059
:10231000BB0F40F4BF2B11F460FF04C06F5F7F4F11
:102320008F4F9F4F089557FD9058440F551F59F0F8
:102330005F3F71F04795880F97FB991F61F09F3FB2
:1023400079F087950895121613061406551FF2CFDB
:102350004695F1DF08C0161617061806991FF1CF2B
:1023600086957105610508940895E894BB27662752
:102370007727CB0197F908950E94471108F48FEF52
:1023800008950E94D4110C9482110E94741138F0A7
:102390000E947B1120F0952311F00C946B110C948A
:1023A000711111240C94B6110E94931170F3959F32
:1023B000C1F3950F50E0551F629FF001729FBB273C
:1023C000F00DB11D639FAA27F00DB11DAA1F649FD8
:1023D0006627B00DA11D661F829F2227B00DA11D8B
:1023E000621F739FB00DA11D621F839FA00D611D11
:1023F000221F749F3327A00D611D231F849F600D32
:10240000211D822F762F6A2F11249F5750409AF05A
:10241000F1F088234AF0EE0FFF1FBB1F661F771FE6
:10242000881F91505040A9F79E3F510580F00C94B1
:102430006B110C94B6115F3FE4F3983ED4F386958C
:1024400077956795B795F795E7959F5FC1F7FE2B51
:10245000880F911D9695879597F908950E944711C9
:10246000880B990B0895DB018F939F930E946B1249
:10247000BF91AF91A29F800D911DA39F900DB29F20
:10248000900D11240895A1E21A2EAA1BBB1BFD0179
:102490000DC0AA1FBB1FEE1FFF1FA217B307E40743
:1024A000F50720F0A21BB30BE40BF50B661F771F9B
:1024B000881F991F1A9469F760957095809590957B
:1024C0009B01AC01BD01CF010895EE0FFF1F0590E8
:1024D000F491E02D09940E947E12A59F900DB49F67
:1024E000900DA49F800D911D11240895B7FF0C94A9
:1024F0006B120E946B12821B930B0895A29FB00176
:10250000B39FC001A39F700D811D1124911DB29F27
:10251000700D811D1124911D089581E090E0F894C3
:082520000C949212F894FFCF15
:10252800000000006502C501F201B20223020102A7
:102538001502000000003A062F06D405B105AA07C7
:10254800AA07AD05A90533051B05AA07B5040000B0
:1025580000003A062F06D405B1051404F103AD05B1
:10256800A90533051B05E408B50400000000A4070D
:10257800C5014E064D066E616E00696E66006F7687
:1025880066004143434944454E542044455445431D
:102598005449002D4F4E20414E4420414E414C5944
:1025A80053495300414C434F484F4C2044455445F0
:1025B8004354454400434152205455524E4544200B
:1025C8004F4646004750524D430047504747410049
:1025D8004C61743D20004C6F6E3D20000D0A005286
:1025E800656164204448543131206661696C6564D2
:1025F8002C206572723D002C00202A432C200020DC
:02260800480088
:00000001FF
